{
  "contractName": "MultiSigWallet",
  "abi": [
    {
      "inputs": [
        {
          "name": "_signers",
          "type": "address[]"
        },
        {
          "name": "_requiredSigns",
          "type": "uint16"
        }
      ],
      "payable": false,
      "stateMutability": "nonpayable",
      "type": "constructor"
    },
    {
      "anonymous": false,
      "inputs": [
        {
          "indexed": true,
          "name": "id",
          "type": "uint256"
        }
      ],
      "name": "TransactionAdded",
      "type": "event"
    },
    {
      "anonymous": false,
      "inputs": [
        {
          "indexed": true,
          "name": "id",
          "type": "uint256"
        },
        {
          "indexed": true,
          "name": "signer",
          "type": "address"
        }
      ],
      "name": "TransactionConfirmation",
      "type": "event"
    },
    {
      "anonymous": false,
      "inputs": [
        {
          "indexed": true,
          "name": "id",
          "type": "uint256"
        }
      ],
      "name": "TransactionExecuted",
      "type": "event"
    },
    {
      "anonymous": false,
      "inputs": [
        {
          "indexed": true,
          "name": "id",
          "type": "uint256"
        }
      ],
      "name": "TransactionExecutionFailed",
      "type": "event"
    },
    {
      "constant": false,
      "inputs": [
        {
          "name": "_newOwner",
          "type": "address"
        }
      ],
      "name": "transferOwner",
      "outputs": [],
      "payable": false,
      "stateMutability": "nonpayable",
      "type": "function"
    },
    {
      "constant": false,
      "inputs": [
        {
          "name": "_signer",
          "type": "address"
        }
      ],
      "name": "addSigned",
      "outputs": [],
      "payable": false,
      "stateMutability": "nonpayable",
      "type": "function"
    },
    {
      "constant": false,
      "inputs": [
        {
          "name": "_signer",
          "type": "address"
        }
      ],
      "name": "removeSigner",
      "outputs": [],
      "payable": false,
      "stateMutability": "nonpayable",
      "type": "function"
    },
    {
      "constant": false,
      "inputs": [
        {
          "name": "_amount",
          "type": "uint256"
        },
        {
          "name": "_destination",
          "type": "address"
        },
        {
          "name": "_data",
          "type": "string"
        }
      ],
      "name": "addTransaction",
      "outputs": [
        {
          "name": "",
          "type": "uint256"
        }
      ],
      "payable": false,
      "stateMutability": "nonpayable",
      "type": "function"
    },
    {
      "constant": false,
      "inputs": [
        {
          "name": "_transactionId",
          "type": "uint256"
        }
      ],
      "name": "confirmTransaction",
      "outputs": [],
      "payable": false,
      "stateMutability": "nonpayable",
      "type": "function"
    }
  ],
  "bytecode": "0x608060405234801561001057600080fd5b50604051610ff9380380610ff983398101806040528101908080518201929190602001805190602001909291905050506000825111151561005057600080fd5b60008161ffff1611151561006357600080fd5b816001908051906020019061007992919061009e565b5080600260006101000a81548161ffff021916908361ffff160217905550505061016b565b828054828255906000526020600020908101928215610117579160200282015b828111156101165782518260006101000a81548173ffffffffffffffffffffffffffffffffffffffff021916908373ffffffffffffffffffffffffffffffffffffffff160217905550916020019190600101906100be565b5b5090506101249190610128565b5090565b61016891905b8082111561016457600081816101000a81549073ffffffffffffffffffffffffffffffffffffffff02191690555060010161012e565b5090565b90565b610e7f8061017a6000396000f30060806040526004361061006d576000357c0100000000000000000000000000000000000000000000000000000000900463ffffffff1680630e316ab7146100725780634fb2e45d146100b5578063b3035f22146100f8578063c01a8c841461013b578063c516a1c614610168575b600080fd5b34801561007e57600080fd5b506100b3600480360381019080803573ffffffffffffffffffffffffffffffffffffffff16906020019092919050505061020f565b005b3480156100c157600080fd5b506100f6600480360381019080803573ffffffffffffffffffffffffffffffffffffffff1690602001909291905050506103b0565b005b34801561010457600080fd5b50610139600480360381019080803573ffffffffffffffffffffffffffffffffffffffff16906020019092919050505061048a565b005b34801561014757600080fd5b50610166600480360381019080803590602001909291905050506105c5565b005b34801561017457600080fd5b506101f960048036038101908080359060200190929190803573ffffffffffffffffffffffffffffffffffffffff169060200190929190803590602001908201803590602001908080601f0160208091040260200160405190810160405280939291908181526020018383808284378201915050505050509192919290505050610793565b6040518082815260200191505060405180910390f35b60008060009054906101000a900473ffffffffffffffffffffffffffffffffffffffff1673ffffffffffffffffffffffffffffffffffffffff163373ffffffffffffffffffffffffffffffffffffffff1614151561026c57600080fd5b600073ffffffffffffffffffffffffffffffffffffffff168273ffffffffffffffffffffffffffffffffffffffff16141515156102a857600080fd5b3373ffffffffffffffffffffffffffffffffffffffff168273ffffffffffffffffffffffffffffffffffffffff16141515156102e357600080fd5b600090505b6001805490508110156103ac578173ffffffffffffffffffffffffffffffffffffffff1660018281548110151561031b57fe5b9060005260206000200160009054906101000a900473ffffffffffffffffffffffffffffffffffffffff1673ffffffffffffffffffffffffffffffffffffffff16141561039f5760018181548110151561037157fe5b9060005260206000200160006101000a81549073ffffffffffffffffffffffffffffffffffffffff02191690555b80806001019150506102e8565b5050565b6000809054906101000a900473ffffffffffffffffffffffffffffffffffffffff1673ffffffffffffffffffffffffffffffffffffffff163373ffffffffffffffffffffffffffffffffffffffff1614151561040b57600080fd5b600073ffffffffffffffffffffffffffffffffffffffff168173ffffffffffffffffffffffffffffffffffffffff161415151561044757600080fd5b806000806101000a81548173ffffffffffffffffffffffffffffffffffffffff021916908373ffffffffffffffffffffffffffffffffffffffff16021790555050565b6000809054906101000a900473ffffffffffffffffffffffffffffffffffffffff1673ffffffffffffffffffffffffffffffffffffffff163373ffffffffffffffffffffffffffffffffffffffff161415156104e557600080fd5b600073ffffffffffffffffffffffffffffffffffffffff168173ffffffffffffffffffffffffffffffffffffffff161415151561052157600080fd5b3373ffffffffffffffffffffffffffffffffffffffff168173ffffffffffffffffffffffffffffffffffffffff161415151561055c57600080fd5b60018190806001815401808255809150509060018203906000526020600020016000909192909190916101000a81548173ffffffffffffffffffffffffffffffffffffffff021916908373ffffffffffffffffffffffffffffffffffffffff1602179055505050565b600080600090505b600180549050811015610781573373ffffffffffffffffffffffffffffffffffffffff1660018281548110151561060057fe5b9060005260206000200160009054906101000a900473ffffffffffffffffffffffffffffffffffffffff1673ffffffffffffffffffffffffffffffffffffffff1614156107745760038381548110151561065657fe5b906000526020600020906004020191508160030160009054906101000a900460ff1615151561068457600080fd5b61068d836109a1565b15151561069957600080fd5b6106a283610a8e565b1515156106ae57600080fd5b60016004600085815260200190815260200160002060003373ffffffffffffffffffffffffffffffffffffffff1673ffffffffffffffffffffffffffffffffffffffff16815260200190815260200160002060006101000a81548160ff0219169083151502179055503373ffffffffffffffffffffffffffffffffffffffff16837f1205fbf8acc69299dd15e8db91a27442f39bde8c77c4b61a1f713c51e707a6fc60405160405180910390a3610764836109a1565b156107735761077283610af5565b5b5b80806001019150506105cd565b6000151561078e57600080fd5b505050565b600061079d610d6d565b60008060009054906101000a900473ffffffffffffffffffffffffffffffffffffffff1673ffffffffffffffffffffffffffffffffffffffff163373ffffffffffffffffffffffffffffffffffffffff161415156107fa57600080fd5b60008611151561080957600080fd5b853073ffffffffffffffffffffffffffffffffffffffff16311015151561082f57600080fd5b600073ffffffffffffffffffffffffffffffffffffffff168573ffffffffffffffffffffffffffffffffffffffff161415151561086b57600080fd5b6080604051908101604052808781526020018673ffffffffffffffffffffffffffffffffffffffff168152602001858152602001600015158152509150600382908060018154018082558091505090600182039060005260206000209060040201600090919290919091506000820151816000015560208201518160010160006101000a81548173ffffffffffffffffffffffffffffffffffffffff021916908373ffffffffffffffffffffffffffffffffffffffff1602179055506040820151816002019080519060200190610943929190610dae565b5060608201518160030160006101000a81548160ff02191690831515021790555050509050807fbe5d398e1f60a26f14ee5d56c44adcb6e833f644dfbe3dd0927d59fadbf8b23360405160405180910390a280925050509392505050565b6000806000809150600090505b600180549050811015610a6d576004600085815260200190815260200160002060006001838154811015156109df57fe5b9060005260206000200160009054906101000a900473ffffffffffffffffffffffffffffffffffffffff1673ffffffffffffffffffffffffffffffffffffffff1673ffffffffffffffffffffffffffffffffffffffff16815260200190815260200160002060009054906101000a900460ff1615610a605781806001019250505b80806001019150506109ae565b600260009054906101000a900461ffff1661ffff1682101592505050919050565b60006004600083815260200190815260200160002060003373ffffffffffffffffffffffffffffffffffffffff1673ffffffffffffffffffffffffffffffffffffffff16815260200190815260200160002060009054906101000a900460ff169050919050565b60008060008090505b600180549050811015610d5a573373ffffffffffffffffffffffffffffffffffffffff16600182815481101515610b3157fe5b9060005260206000200160009054906101000a900473ffffffffffffffffffffffffffffffffffffffff1673ffffffffffffffffffffffffffffffffffffffff161415610d4d57600384815481101515610b8757fe5b906000526020600020906004020192503073ffffffffffffffffffffffffffffffffffffffff1631836000015411151515610bc157600080fd5b610bca846109a1565b9150818015610be857508260030160009054906101000a900460ff16155b15610d4c5760018360030160006101000a81548160ff0219169083151502179055508260010160009054906101000a900473ffffffffffffffffffffffffffffffffffffffff1673ffffffffffffffffffffffffffffffffffffffff168360000154846002016040518082805460018160011615610100020316600290048015610cb35780601f10610c8857610100808354040283529160200191610cb3565b820191906000526020600020905b815481529060010190602001808311610c9657829003601f168201915b505091505060006040518083038185875af19250505015610d0057837f15ed165a284872ea7017f03df402a0cadfbfab588320ffaf83f160c2f82781c760405160405180910390a2610d4b565b60008360030160006101000a81548160ff021916908315150217905550837f2724cfb6dd99839f245928a05f4efb76270bb8ff17f88c75d139204bd91c83d060405160405180910390a25b5b5b8080600101915050610afe565b60001515610d6757600080fd5b50505050565b60806040519081016040528060008152602001600073ffffffffffffffffffffffffffffffffffffffff168152602001606081526020016000151581525090565b828054600181600116156101000203166002900490600052602060002090601f016020900481019282601f10610def57805160ff1916838001178555610e1d565b82800160010185558215610e1d579182015b82811115610e1c578251825591602001919060010190610e01565b5b509050610e2a9190610e2e565b5090565b610e5091905b80821115610e4c576000816000905550600101610e34565b5090565b905600a165627a7a72305820d93c5da566acfb05ed4449c1b0b1ead254384eeaae8330f237b685050fa211830029",
  "source": "pragma solidity ^0.4.23;\n\ncontract MultiSigWallet {\n\n    address internal owner;\n    address[] internal signers;\n    uint16 internal requiredSigns;\n\n    Transaction[] internal transactions;\n    mapping(uint => mapping(address => bool)) internal confirmations;\n\n    struct Transaction{\n        uint amount;\n        address destination;\n        string data;\n        bool executed;\n    }\n\n    event TransactionAdded(uint indexed id);\n    event TransactionConfirmation(uint indexed id, address indexed signer);\n    event TransactionExecuted(uint indexed id);\n    event TransactionExecutionFailed(uint indexed id);\n\n    constructor(address[] _signers, uint16 _requiredSigns) public{\n\n        require(_signers.length > 0);\n        require(_requiredSigns > 0);\n\n        signers = _signers;\n        requiredSigns = _requiredSigns;\n    }\n\n    modifier onlyOwner(){\n        require(msg.sender == owner);\n        _;\n    }\n\n    modifier onlySigner(){\n        for(uint i = 0; i < signers.length; i++){\n            if(signers[i] == msg.sender){\n                _;\n            }\n        }\n        require(false);\n    }\n\n    function transferOwner(address _newOwner) public onlyOwner{\n        require(_newOwner != address(0));\n\n        owner = _newOwner;\n    }\n\n    function addSigned(address _signer) public onlyOwner{\n        require(_signer != address(0));\n        require(_signer != msg.sender);\n\n        signers.push(_signer);\n    }\n\n    function removeSigner(address _signer) public onlyOwner{\n        require(_signer != address(0));\n        require(_signer != msg.sender);\n\n        for(uint i = 0; i < signers.length; i++){\n            if(signers[i] == _signer){\n                delete signers[i];\n            }\n        }\n    }\n\n    function addTransaction(uint _amount, address _destination, string _data) public onlyOwner returns (uint) {\n        require(_amount > 0);\n        require(address(this).balance >= _amount);\n        require(_destination != address(0));\n\n        Transaction memory newTx = Transaction({\n            amount: _amount,\n            destination: _destination,\n            data: _data,\n            executed: false\n        });\n\n        uint newTxId = transactions.push(newTx);\n        emit TransactionAdded(newTxId);\n        return newTxId;\n    }\n\n    function confirmTransaction(uint _transactionId) public onlySigner{\n        Transaction storage transaction = transactions[_transactionId];\n        require(!transaction.executed);\n        require(!isTransactionConfirmed(_transactionId));\n        require(!isTransactionConfirmedBySigner(_transactionId));\n\n        confirmations[_transactionId][msg.sender] = true;\n\n        emit TransactionConfirmation(_transactionId, msg.sender);\n\n        if(isTransactionConfirmed(_transactionId)){\n            executeTransaction(_transactionId);\n        }\n    }\n\n    function executeTransaction(uint _transactionId) internal onlySigner {\n        Transaction storage transaction = transactions[_transactionId];\n        require(transaction.amount <= address(this).balance);\n\n        bool isConfirmed = isTransactionConfirmed(_transactionId);\n\n        if(isConfirmed && !transaction.executed){\n\n            transaction.executed = true;\n\n            if (transaction.destination.call.value(transaction.amount)(transaction.data)){\n                emit TransactionExecuted(_transactionId);\n            }else {\n                transaction.executed = false;\n                emit TransactionExecutionFailed(_transactionId);\n            }\n        }\n    }\n\n    function isTransactionConfirmed(uint _transactionId) internal view returns (bool){\n        \n        uint confirmCount = 0;\n        for(uint i = 0; i < signers.length; i++){\n            if(confirmations[_transactionId][signers[i]]){\n                confirmCount++;\n            }\n        }\n\n        return confirmCount >= requiredSigns;\n    }\n\n    function isTransactionConfirmedBySigner(uint _transactionId) internal view returns (bool){\n        return confirmations[_transactionId][msg.sender];\n    }\n}",
  "sourcePath": "/Users/markomarinovic/Projects/ethereum-multisig/src/contracts/MultiSigWallet.sol",
  "compiler": {
    "name": "solc",
    "version": "0.4.24+commit.e67f0147.Emscripten.clang"
  },
  "schemaVersion": "2.0.1",
  "updatedAt": "2018-08-18T17:33:31.663Z"
}