{
  "contractName": "MultiSigWallet",
  "abi": [
    {
      "constant": true,
      "inputs": [],
      "name": "owner",
      "outputs": [
        {
          "name": "",
          "type": "address"
        }
      ],
      "payable": false,
      "stateMutability": "view",
      "type": "function"
    },
    {
      "constant": false,
      "inputs": [
        {
          "name": "newOwner",
          "type": "address"
        }
      ],
      "name": "transferOwnership",
      "outputs": [],
      "payable": false,
      "stateMutability": "nonpayable",
      "type": "function"
    },
    {
      "constant": true,
      "inputs": [
        {
          "name": "",
          "type": "uint256"
        }
      ],
      "name": "forwarders",
      "outputs": [
        {
          "name": "",
          "type": "address"
        }
      ],
      "payable": false,
      "stateMutability": "view",
      "type": "function"
    },
    {
      "inputs": [
        {
          "name": "_signers",
          "type": "address[]"
        },
        {
          "name": "_requiredSigns",
          "type": "uint16"
        }
      ],
      "payable": false,
      "stateMutability": "nonpayable",
      "type": "constructor"
    },
    {
      "payable": true,
      "stateMutability": "payable",
      "type": "fallback"
    },
    {
      "anonymous": false,
      "inputs": [
        {
          "indexed": true,
          "name": "amount",
          "type": "uint256"
        },
        {
          "indexed": true,
          "name": "sender",
          "type": "address"
        }
      ],
      "name": "Deposited",
      "type": "event"
    },
    {
      "anonymous": false,
      "inputs": [
        {
          "indexed": true,
          "name": "id",
          "type": "uint256"
        }
      ],
      "name": "TransactionAdded",
      "type": "event"
    },
    {
      "anonymous": false,
      "inputs": [
        {
          "indexed": true,
          "name": "id",
          "type": "uint256"
        },
        {
          "indexed": true,
          "name": "signer",
          "type": "address"
        }
      ],
      "name": "TransactionConfirmation",
      "type": "event"
    },
    {
      "anonymous": false,
      "inputs": [
        {
          "indexed": true,
          "name": "id",
          "type": "uint256"
        }
      ],
      "name": "TransactionExecuted",
      "type": "event"
    },
    {
      "anonymous": false,
      "inputs": [
        {
          "indexed": true,
          "name": "id",
          "type": "uint256"
        }
      ],
      "name": "TransactionExecutionFailed",
      "type": "event"
    },
    {
      "anonymous": false,
      "inputs": [
        {
          "indexed": true,
          "name": "newOwner",
          "type": "address"
        }
      ],
      "name": "OwnerChanged",
      "type": "event"
    },
    {
      "constant": false,
      "inputs": [
        {
          "name": "_signer",
          "type": "address"
        }
      ],
      "name": "addSigner",
      "outputs": [],
      "payable": false,
      "stateMutability": "nonpayable",
      "type": "function"
    },
    {
      "constant": false,
      "inputs": [
        {
          "name": "_signer",
          "type": "address"
        }
      ],
      "name": "removeSigner",
      "outputs": [],
      "payable": false,
      "stateMutability": "nonpayable",
      "type": "function"
    },
    {
      "constant": false,
      "inputs": [
        {
          "name": "_amount",
          "type": "uint256"
        },
        {
          "name": "_destination",
          "type": "address"
        },
        {
          "name": "_data",
          "type": "string"
        }
      ],
      "name": "addTransaction",
      "outputs": [
        {
          "name": "",
          "type": "uint256"
        }
      ],
      "payable": false,
      "stateMutability": "nonpayable",
      "type": "function"
    },
    {
      "constant": false,
      "inputs": [
        {
          "name": "_transactionId",
          "type": "uint256"
        }
      ],
      "name": "confirmTransaction",
      "outputs": [],
      "payable": false,
      "stateMutability": "nonpayable",
      "type": "function"
    },
    {
      "constant": false,
      "inputs": [],
      "name": "deployNewForwarder",
      "outputs": [],
      "payable": false,
      "stateMutability": "nonpayable",
      "type": "function"
    }
  ],
  "bytecode": "0x60806040523480156200001157600080fd5b5060405162001712380380620017128339810180604052810190808051820192919060200180519060200190929190505050336000806101000a81548173ffffffffffffffffffffffffffffffffffffffff021916908373ffffffffffffffffffffffffffffffffffffffff16021790555060038251101515156200009557600080fd5b60028161ffff1610151515620000aa57600080fd5b8160019080519060200190620000c29291906200014e565b5080600360006101000a81548161ffff021916908361ffff16021790555060013390806001815401808255809150509060018203906000526020600020016000909192909190916101000a81548173ffffffffffffffffffffffffffffffffffffffff021916908373ffffffffffffffffffffffffffffffffffffffff16021790555050505062000223565b828054828255906000526020600020908101928215620001ca579160200282015b82811115620001c95782518260006101000a81548173ffffffffffffffffffffffffffffffffffffffff021916908373ffffffffffffffffffffffffffffffffffffffff160217905550916020019190600101906200016f565b5b509050620001d99190620001dd565b5090565b6200022091905b808211156200021c57600081816101000a81549073ffffffffffffffffffffffffffffffffffffffff021916905550600101620001e4565b5090565b90565b6114df80620002336000396000f30060806040526004361061008e576000357c0100000000000000000000000000000000000000000000000000000000900463ffffffff1680630e316ab7146100de5780633babafdb146101215780638da5cb5b14610138578063c01a8c841461018f578063c516a1c6146101bc578063eb12d61e14610263578063f2fde38b146102a6578063f7c860d7146102e9575b60003411156100dc573373ffffffffffffffffffffffffffffffffffffffff16347f21d3f238b5a9e25ffc48b8320bc1d58882b1d90d0b4fcc7ba9707e3aebfedf1660405160405180910390a35b005b3480156100ea57600080fd5b5061011f600480360381019080803573ffffffffffffffffffffffffffffffffffffffff169060200190929190505050610356565b005b34801561012d57600080fd5b506101366104f7565b005b34801561014457600080fd5b5061014d6105e4565b604051808273ffffffffffffffffffffffffffffffffffffffff1673ffffffffffffffffffffffffffffffffffffffff16815260200191505060405180910390f35b34801561019b57600080fd5b506101ba60048036038101908080359060200190929190505050610609565b005b3480156101c857600080fd5b5061024d60048036038101908080359060200190929190803573ffffffffffffffffffffffffffffffffffffffff169060200190929190803590602001908201803590602001908080601f01602080910402602001604051908101604052809392919081815260200183838082843782019150505050505091929192905050506107ca565b6040518082815260200191505060405180910390f35b34801561026f57600080fd5b506102a4600480360381019080803573ffffffffffffffffffffffffffffffffffffffff1690602001909291905050506109d8565b005b3480156102b257600080fd5b506102e7600480360381019080803573ffffffffffffffffffffffffffffffffffffffff169060200190929190505050610b6c565b005b3480156102f557600080fd5b5061031460048036038101908080359060200190929190505050610c8a565b604051808273ffffffffffffffffffffffffffffffffffffffff1673ffffffffffffffffffffffffffffffffffffffff16815260200191505060405180910390f35b60008060009054906101000a900473ffffffffffffffffffffffffffffffffffffffff1673ffffffffffffffffffffffffffffffffffffffff163373ffffffffffffffffffffffffffffffffffffffff161415156103b357600080fd5b600073ffffffffffffffffffffffffffffffffffffffff168273ffffffffffffffffffffffffffffffffffffffff16141515156103ef57600080fd5b3373ffffffffffffffffffffffffffffffffffffffff168273ffffffffffffffffffffffffffffffffffffffff161415151561042a57600080fd5b600090505b6001805490508110156104f3578173ffffffffffffffffffffffffffffffffffffffff1660018281548110151561046257fe5b9060005260206000200160009054906101000a900473ffffffffffffffffffffffffffffffffffffffff1673ffffffffffffffffffffffffffffffffffffffff1614156104e6576001818154811015156104b857fe5b9060005260206000200160006101000a81549073ffffffffffffffffffffffffffffffffffffffff02191690555b808060010191505061042f565b5050565b60008060009054906101000a900473ffffffffffffffffffffffffffffffffffffffff1673ffffffffffffffffffffffffffffffffffffffff163373ffffffffffffffffffffffffffffffffffffffff1614151561055457600080fd5b61055c611086565b604051809103906000f080158015610578573d6000803e3d6000fd5b50905060028190806001815401808255809150509060018203906000526020600020016000909192909190916101000a81548173ffffffffffffffffffffffffffffffffffffffff021916908373ffffffffffffffffffffffffffffffffffffffff1602179055505050565b6000809054906101000a900473ffffffffffffffffffffffffffffffffffffffff1681565b600080600090505b6001805490508110156107c5573373ffffffffffffffffffffffffffffffffffffffff1660018281548110151561064457fe5b9060005260206000200160009054906101000a900473ffffffffffffffffffffffffffffffffffffffff1673ffffffffffffffffffffffffffffffffffffffff1614156107b85760048381548110151561069a57fe5b906000526020600020906004020191508160030160009054906101000a900460ff161515156106c857600080fd5b6106d183610cc8565b1515156106dd57600080fd5b6106e683610db5565b1515156106f257600080fd5b60016005600085815260200190815260200160002060003373ffffffffffffffffffffffffffffffffffffffff1673ffffffffffffffffffffffffffffffffffffffff16815260200190815260200160002060006101000a81548160ff0219169083151502179055503373ffffffffffffffffffffffffffffffffffffffff16837f1205fbf8acc69299dd15e8db91a27442f39bde8c77c4b61a1f713c51e707a6fc60405160405180910390a36107a883610cc8565b156107b7576107b683610e1c565b5b5b8080600101915050610611565b600080fd5b60006107d4611096565b60008060009054906101000a900473ffffffffffffffffffffffffffffffffffffffff1673ffffffffffffffffffffffffffffffffffffffff163373ffffffffffffffffffffffffffffffffffffffff1614151561083157600080fd5b60008611151561084057600080fd5b853073ffffffffffffffffffffffffffffffffffffffff16311015151561086657600080fd5b600073ffffffffffffffffffffffffffffffffffffffff168573ffffffffffffffffffffffffffffffffffffffff16141515156108a257600080fd5b6080604051908101604052808781526020018673ffffffffffffffffffffffffffffffffffffffff168152602001858152602001600015158152509150600482908060018154018082558091505090600182039060005260206000209060040201600090919290919091506000820151816000015560208201518160010160006101000a81548173ffffffffffffffffffffffffffffffffffffffff021916908373ffffffffffffffffffffffffffffffffffffffff160217905550604082015181600201908051906020019061097a9291906110d7565b5060608201518160030160006101000a81548160ff02191690831515021790555050509050807fbe5d398e1f60a26f14ee5d56c44adcb6e833f644dfbe3dd0927d59fadbf8b23360405160405180910390a280925050509392505050565b60008060009054906101000a900473ffffffffffffffffffffffffffffffffffffffff1673ffffffffffffffffffffffffffffffffffffffff163373ffffffffffffffffffffffffffffffffffffffff16141515610a3557600080fd5b600073ffffffffffffffffffffffffffffffffffffffff168273ffffffffffffffffffffffffffffffffffffffff1614151515610a7157600080fd5b600090505b600180549050811015610b02578173ffffffffffffffffffffffffffffffffffffffff16600182815481101515610aa957fe5b9060005260206000200160009054906101000a900473ffffffffffffffffffffffffffffffffffffffff1673ffffffffffffffffffffffffffffffffffffffff161415610af557600080fd5b8080600101915050610a76565b60018290806001815401808255809150509060018203906000526020600020016000909192909190916101000a81548173ffffffffffffffffffffffffffffffffffffffff021916908373ffffffffffffffffffffffffffffffffffffffff160217905550505050565b6000809054906101000a900473ffffffffffffffffffffffffffffffffffffffff1673ffffffffffffffffffffffffffffffffffffffff168173ffffffffffffffffffffffffffffffffffffffff1614151515610bc857600080fd5b600073ffffffffffffffffffffffffffffffffffffffff168173ffffffffffffffffffffffffffffffffffffffff1614151515610c0457600080fd5b806000806101000a81548173ffffffffffffffffffffffffffffffffffffffff021916908373ffffffffffffffffffffffffffffffffffffffff1602179055508073ffffffffffffffffffffffffffffffffffffffff167fa2ea9883a321a3e97b8266c2b078bfeec6d50c711ed71f874a90d500ae2eaf3660405160405180910390a250565b600281815481101515610c9957fe5b906000526020600020016000915054906101000a900473ffffffffffffffffffffffffffffffffffffffff1681565b6000806000809150600090505b600180549050811015610d9457600560008581526020019081526020016000206000600183815481101515610d0657fe5b9060005260206000200160009054906101000a900473ffffffffffffffffffffffffffffffffffffffff1673ffffffffffffffffffffffffffffffffffffffff1673ffffffffffffffffffffffffffffffffffffffff16815260200190815260200160002060009054906101000a900460ff1615610d875781806001019250505b8080600101915050610cd5565b600360009054906101000a900461ffff1661ffff1682101592505050919050565b60006005600083815260200190815260200160002060003373ffffffffffffffffffffffffffffffffffffffff1673ffffffffffffffffffffffffffffffffffffffff16815260200190815260200160002060009054906101000a900460ff169050919050565b60008060008090505b600180549050811015611081573373ffffffffffffffffffffffffffffffffffffffff16600182815481101515610e5857fe5b9060005260206000200160009054906101000a900473ffffffffffffffffffffffffffffffffffffffff1673ffffffffffffffffffffffffffffffffffffffff16141561107457600484815481101515610eae57fe5b906000526020600020906004020192503073ffffffffffffffffffffffffffffffffffffffff1631836000015411151515610ee857600080fd5b610ef184610cc8565b9150818015610f0f57508260030160009054906101000a900460ff16155b156110735760018360030160006101000a81548160ff0219169083151502179055508260010160009054906101000a900473ffffffffffffffffffffffffffffffffffffffff1673ffffffffffffffffffffffffffffffffffffffff168360000154846002016040518082805460018160011615610100020316600290048015610fda5780601f10610faf57610100808354040283529160200191610fda565b820191906000526020600020905b815481529060010190602001808311610fbd57829003601f168201915b505091505060006040518083038185875af1925050501561102757837f15ed165a284872ea7017f03df402a0cadfbfab588320ffaf83f160c2f82781c760405160405180910390a2611072565b60008360030160006101000a81548160ff021916908315150217905550837f2724cfb6dd99839f245928a05f4efb76270bb8ff17f88c75d139204bd91c83d060405160405180910390a25b5b5b8080600101915050610e25565b600080fd5b6040516103378061117d83390190565b60806040519081016040528060008152602001600073ffffffffffffffffffffffffffffffffffffffff168152602001606081526020016000151581525090565b828054600181600116156101000203166002900490600052602060002090601f016020900481019282601f1061111857805160ff1916838001178555611146565b82800160010185558215611146579182015b8281111561114557825182559160200191906001019061112a565b5b5090506111539190611157565b5090565b61117991905b8082111561117557600081600090555060010161115d565b5090565b9056006080604052336000806101000a81548173ffffffffffffffffffffffffffffffffffffffff021916908373ffffffffffffffffffffffffffffffffffffffff1602179055506102e4806100536000396000f30060806040526004361061004c576000357c0100000000000000000000000000000000000000000000000000000000900463ffffffff1680638da5cb5b14610061578063f2fde38b146100b8575b600034111561005f5761005e346100fb565b5b005b34801561006d57600080fd5b50610076610175565b604051808273ffffffffffffffffffffffffffffffffffffffff1673ffffffffffffffffffffffffffffffffffffffff16815260200191505060405180910390f35b3480156100c457600080fd5b506100f9600480360381019080803573ffffffffffffffffffffffffffffffffffffffff16906020019092919050505061019a565b005b60008111151561010a57600080fd5b6000809054906101000a900473ffffffffffffffffffffffffffffffffffffffff1673ffffffffffffffffffffffffffffffffffffffff166108fc829081150290604051600060405180830381858888f19350505050158015610171573d6000803e3d6000fd5b5050565b6000809054906101000a900473ffffffffffffffffffffffffffffffffffffffff1681565b6000809054906101000a900473ffffffffffffffffffffffffffffffffffffffff1673ffffffffffffffffffffffffffffffffffffffff168173ffffffffffffffffffffffffffffffffffffffff16141515156101f657600080fd5b600073ffffffffffffffffffffffffffffffffffffffff168173ffffffffffffffffffffffffffffffffffffffff161415151561023257600080fd5b806000806101000a81548173ffffffffffffffffffffffffffffffffffffffff021916908373ffffffffffffffffffffffffffffffffffffffff1602179055508073ffffffffffffffffffffffffffffffffffffffff167fa2ea9883a321a3e97b8266c2b078bfeec6d50c711ed71f874a90d500ae2eaf3660405160405180910390a2505600a165627a7a723058200fb9765d2289ac639a3ebcaaacbff3e18c73d0d878c0c62dd0f70c0ee3f3f8d20029a165627a7a72305820a713ade754273518e3d7f0ecd70e1a3ec59d95ac4e01c7de9c465ab3a76867ac0029",
  "source": "pragma solidity ^0.4.23;\n\nimport { Forwarder }  from \"./Forwarder.sol\";\nimport \"../ethereum-misc/src/contracts/Ownable.sol\";\n\ncontract MultiSigWallet is Ownable{\n\n    address[] internal signers;\n    address[] public forwarders; \n    uint16 internal requiredSigns;\n\n    Transaction[] internal transactions;\n    mapping(uint => mapping(address => bool)) internal confirmations;\n\n    struct Transaction{\n        uint amount;\n        address destination;\n        string data;\n        bool executed;\n    }\n\n    event Deposited(uint indexed amount, address indexed sender);\n    event TransactionAdded(uint indexed id);\n    event TransactionConfirmation(uint indexed id, address indexed signer);\n    event TransactionExecuted(uint indexed id);\n    event TransactionExecutionFailed(uint indexed id);\n\n    constructor(address[] _signers, uint16 _requiredSigns) public{\n\n        require(_signers.length >= 3);\n        require(_requiredSigns >=2);\n\n        signers = _signers;\n        requiredSigns = _requiredSigns;\n\n        signers.push(msg.sender);\n    }\n\n    function() public payable{\n        if(msg.value > 0){\n            emit Deposited(msg.value, msg.sender);\n        }\n    }\n\n    modifier onlySigner(){\n        for(uint i = 0; i < signers.length; i++){\n            if(signers[i] == msg.sender){\n                _;\n            }\n        }\n        revert();\n    }\n\n    function addSigner(address _signer) public onlyOwner{\n        require(_signer != address(0));\n\n        for(uint i= 0; i< signers.length; i++){\n            if(signers[i] == _signer){\n                revert();\n            }\n        }\n        signers.push(_signer);\n    }\n\n    function removeSigner(address _signer) public onlyOwner{\n        require(_signer != address(0));\n        require(_signer != msg.sender);\n\n        for(uint i = 0; i < signers.length; i++){\n            if(signers[i] == _signer){\n                delete signers[i];\n            }\n        }\n    }\n\n    function addTransaction(uint _amount, address _destination, string _data) public onlyOwner returns (uint) {\n        require(_amount > 0);\n        require(address(this).balance >= _amount);\n        require(_destination != address(0));\n\n        Transaction memory newTx = Transaction({\n            amount: _amount,\n            destination: _destination,\n            data: _data,\n            executed: false\n        });\n\n        uint newTxId = transactions.push(newTx);\n        emit TransactionAdded(newTxId);\n        return newTxId;\n    }\n\n    function confirmTransaction(uint _transactionId) public onlySigner{\n        Transaction storage transaction = transactions[_transactionId];\n        require(!transaction.executed);\n        require(!isTransactionConfirmed(_transactionId));\n        require(!isTransactionConfirmedBySigner(_transactionId));\n\n        confirmations[_transactionId][msg.sender] = true;\n\n        emit TransactionConfirmation(_transactionId, msg.sender);\n\n        if(isTransactionConfirmed(_transactionId)){\n            executeTransaction(_transactionId);\n        }\n    }\n\n    function deployNewForwarder() external onlyOwner {\n        Forwarder f = new Forwarder();\n        forwarders.push(address(f));\n    }\n\n    function executeTransaction(uint _transactionId) internal onlySigner {\n        Transaction storage transaction = transactions[_transactionId];\n        require(transaction.amount <= address(this).balance);\n\n        bool isConfirmed = isTransactionConfirmed(_transactionId);\n\n        if(isConfirmed && !transaction.executed){\n\n            transaction.executed = true;\n\n            if (transaction.destination.call.value(transaction.amount)(transaction.data)){\n                emit TransactionExecuted(_transactionId);\n            }else {\n                transaction.executed = false;\n                emit TransactionExecutionFailed(_transactionId);\n            }\n        }\n    }\n\n    function isTransactionConfirmed(uint _transactionId) internal view returns (bool){\n        \n        uint confirmCount = 0;\n        for(uint i = 0; i < signers.length; i++){\n            if(confirmations[_transactionId][signers[i]]){\n                confirmCount++;\n            }\n        }\n\n        return confirmCount >= requiredSigns;\n    }\n\n    function isTransactionConfirmedBySigner(uint _transactionId) internal view returns (bool){\n        return confirmations[_transactionId][msg.sender];\n    }\n}",
  "sourcePath": "/Users/markomarinovic/Projects/Personal/ethereum-multisig/src/contracts/MultiSigWallet.sol",
  "compiler": {
    "name": "solc",
    "version": "0.4.24+commit.e67f0147.Emscripten.clang"
  },
  "schemaVersion": "2.0.1",
  "updatedAt": "2018-10-21T18:02:09.117Z"
}