{
  "contractName": "MultiSigWalletWithDailyLimit",
  "abi": [
    {
      "constant": false,
      "inputs": [
        {
          "name": "_signer",
          "type": "address"
        }
      ],
      "name": "removeSigner",
      "outputs": [],
      "payable": false,
      "stateMutability": "nonpayable",
      "type": "function"
    },
    {
      "constant": false,
      "inputs": [],
      "name": "deployNewForwarder",
      "outputs": [],
      "payable": false,
      "stateMutability": "nonpayable",
      "type": "function"
    },
    {
      "constant": true,
      "inputs": [],
      "name": "dailyLimit",
      "outputs": [
        {
          "name": "",
          "type": "uint256"
        }
      ],
      "payable": false,
      "stateMutability": "view",
      "type": "function"
    },
    {
      "constant": true,
      "inputs": [],
      "name": "owner",
      "outputs": [
        {
          "name": "",
          "type": "address"
        }
      ],
      "payable": false,
      "stateMutability": "view",
      "type": "function"
    },
    {
      "constant": false,
      "inputs": [
        {
          "name": "_transactionId",
          "type": "uint256"
        }
      ],
      "name": "confirmTransaction",
      "outputs": [],
      "payable": false,
      "stateMutability": "nonpayable",
      "type": "function"
    },
    {
      "constant": false,
      "inputs": [
        {
          "name": "_amount",
          "type": "uint256"
        },
        {
          "name": "_destination",
          "type": "address"
        },
        {
          "name": "_data",
          "type": "string"
        }
      ],
      "name": "addTransaction",
      "outputs": [
        {
          "name": "",
          "type": "uint256"
        }
      ],
      "payable": false,
      "stateMutability": "nonpayable",
      "type": "function"
    },
    {
      "constant": false,
      "inputs": [
        {
          "name": "_signer",
          "type": "address"
        }
      ],
      "name": "addSigner",
      "outputs": [],
      "payable": false,
      "stateMutability": "nonpayable",
      "type": "function"
    },
    {
      "constant": true,
      "inputs": [],
      "name": "spentToday",
      "outputs": [
        {
          "name": "",
          "type": "uint256"
        }
      ],
      "payable": false,
      "stateMutability": "view",
      "type": "function"
    },
    {
      "constant": false,
      "inputs": [
        {
          "name": "newOwner",
          "type": "address"
        }
      ],
      "name": "transferOwnership",
      "outputs": [],
      "payable": false,
      "stateMutability": "nonpayable",
      "type": "function"
    },
    {
      "constant": true,
      "inputs": [
        {
          "name": "",
          "type": "uint256"
        }
      ],
      "name": "forwarders",
      "outputs": [
        {
          "name": "",
          "type": "address"
        }
      ],
      "payable": false,
      "stateMutability": "view",
      "type": "function"
    },
    {
      "constant": true,
      "inputs": [],
      "name": "yesterday",
      "outputs": [
        {
          "name": "",
          "type": "uint256"
        }
      ],
      "payable": false,
      "stateMutability": "view",
      "type": "function"
    },
    {
      "inputs": [
        {
          "name": "_signers",
          "type": "address[]"
        },
        {
          "name": "_requiredSigns",
          "type": "uint16"
        },
        {
          "name": "_dailyLimit",
          "type": "uint256"
        }
      ],
      "payable": false,
      "stateMutability": "nonpayable",
      "type": "constructor"
    },
    {
      "payable": true,
      "stateMutability": "payable",
      "type": "fallback"
    },
    {
      "anonymous": false,
      "inputs": [
        {
          "indexed": true,
          "name": "amount",
          "type": "uint256"
        },
        {
          "indexed": true,
          "name": "sender",
          "type": "address"
        }
      ],
      "name": "Deposited",
      "type": "event"
    },
    {
      "anonymous": false,
      "inputs": [
        {
          "indexed": true,
          "name": "id",
          "type": "uint256"
        }
      ],
      "name": "TransactionAdded",
      "type": "event"
    },
    {
      "anonymous": false,
      "inputs": [
        {
          "indexed": true,
          "name": "id",
          "type": "uint256"
        },
        {
          "indexed": true,
          "name": "signer",
          "type": "address"
        }
      ],
      "name": "TransactionConfirmation",
      "type": "event"
    },
    {
      "anonymous": false,
      "inputs": [
        {
          "indexed": true,
          "name": "id",
          "type": "uint256"
        }
      ],
      "name": "TransactionExecuted",
      "type": "event"
    },
    {
      "anonymous": false,
      "inputs": [
        {
          "indexed": true,
          "name": "id",
          "type": "uint256"
        }
      ],
      "name": "TransactionExecutionFailed",
      "type": "event"
    },
    {
      "anonymous": false,
      "inputs": [
        {
          "indexed": true,
          "name": "newOwner",
          "type": "address"
        }
      ],
      "name": "OwnerChanged",
      "type": "event"
    }
  ],
  "bytecode": "0x60806040523480156200001157600080fd5b5060405162001870380380620018708339810180604052810190808051820192919060200180519060200190929190805190602001909291905050508282336000806101000a81548173ffffffffffffffffffffffffffffffffffffffff021916908373ffffffffffffffffffffffffffffffffffffffff1602179055506003825110151515620000a157600080fd5b60028161ffff1610151515620000b657600080fd5b8160019080519060200190620000ce92919062000174565b5080600360006101000a81548161ffff021916908361ffff16021790555060013390806001815401808255809150509060018203906000526020600020016000909192909190916101000a81548173ffffffffffffffffffffffffffffffffffffffff021916908373ffffffffffffffffffffffffffffffffffffffff1602179055505050506000811115156200016457600080fd5b8060068190555050505062000249565b828054828255906000526020600020908101928215620001f0579160200282015b82811115620001ef5782518260006101000a81548173ffffffffffffffffffffffffffffffffffffffff021916908373ffffffffffffffffffffffffffffffffffffffff1602179055509160200191906001019062000195565b5b509050620001ff919062000203565b5090565b6200024691905b808211156200024257600081816101000a81549073ffffffffffffffffffffffffffffffffffffffff0219169055506001016200020a565b5090565b90565b61161780620002596000396000f3006080604052600436106100af576000357c0100000000000000000000000000000000000000000000000000000000900463ffffffff1680630e316ab7146100ff5780633babafdb1461014257806367eeba0c146101595780638da5cb5b14610184578063c01a8c84146101db578063c516a1c614610208578063eb12d61e146102af578063f059cf2b146102f2578063f2fde38b1461031d578063f7c860d714610360578063fec09214146103cd575b60003411156100fd573373ffffffffffffffffffffffffffffffffffffffff16347f21d3f238b5a9e25ffc48b8320bc1d58882b1d90d0b4fcc7ba9707e3aebfedf1660405160405180910390a35b005b34801561010b57600080fd5b50610140600480360381019080803573ffffffffffffffffffffffffffffffffffffffff1690602001909291905050506103f8565b005b34801561014e57600080fd5b50610157610599565b005b34801561016557600080fd5b5061016e610686565b6040518082815260200191505060405180910390f35b34801561019057600080fd5b5061019961068c565b604051808273ffffffffffffffffffffffffffffffffffffffff1673ffffffffffffffffffffffffffffffffffffffff16815260200191505060405180910390f35b3480156101e757600080fd5b50610206600480360381019080803590602001909291905050506106b1565b005b34801561021457600080fd5b5061029960048036038101908080359060200190929190803573ffffffffffffffffffffffffffffffffffffffff169060200190929190803590602001908201803590602001908080601f0160208091040260200160405190810160405280939291908181526020018383808284378201915050505050509192919290505050610872565b6040518082815260200191505060405180910390f35b3480156102bb57600080fd5b506102f0600480360381019080803573ffffffffffffffffffffffffffffffffffffffff169060200190929190505050610a80565b005b3480156102fe57600080fd5b50610307610c14565b6040518082815260200191505060405180910390f35b34801561032957600080fd5b5061035e600480360381019080803573ffffffffffffffffffffffffffffffffffffffff169060200190929190505050610c1a565b005b34801561036c57600080fd5b5061038b60048036038101908080359060200190929190505050610d38565b604051808273ffffffffffffffffffffffffffffffffffffffff1673ffffffffffffffffffffffffffffffffffffffff16815260200191505060405180910390f35b3480156103d957600080fd5b506103e2610d76565b6040518082815260200191505060405180910390f35b60008060009054906101000a900473ffffffffffffffffffffffffffffffffffffffff1673ffffffffffffffffffffffffffffffffffffffff163373ffffffffffffffffffffffffffffffffffffffff1614151561045557600080fd5b600073ffffffffffffffffffffffffffffffffffffffff168273ffffffffffffffffffffffffffffffffffffffff161415151561049157600080fd5b3373ffffffffffffffffffffffffffffffffffffffff168273ffffffffffffffffffffffffffffffffffffffff16141515156104cc57600080fd5b600090505b600180549050811015610595578173ffffffffffffffffffffffffffffffffffffffff1660018281548110151561050457fe5b9060005260206000200160009054906101000a900473ffffffffffffffffffffffffffffffffffffffff1673ffffffffffffffffffffffffffffffffffffffff1614156105885760018181548110151561055a57fe5b9060005260206000200160006101000a81549073ffffffffffffffffffffffffffffffffffffffff02191690555b80806001019150506104d1565b5050565b60008060009054906101000a900473ffffffffffffffffffffffffffffffffffffffff1673ffffffffffffffffffffffffffffffffffffffff163373ffffffffffffffffffffffffffffffffffffffff161415156105f657600080fd5b6105fe6111be565b604051809103906000f08015801561061a573d6000803e3d6000fd5b50905060028190806001815401808255809150509060018203906000526020600020016000909192909190916101000a81548173ffffffffffffffffffffffffffffffffffffffff021916908373ffffffffffffffffffffffffffffffffffffffff1602179055505050565b60065481565b6000809054906101000a900473ffffffffffffffffffffffffffffffffffffffff1681565b600080600090505b60018054905081101561086d573373ffffffffffffffffffffffffffffffffffffffff166001828154811015156106ec57fe5b9060005260206000200160009054906101000a900473ffffffffffffffffffffffffffffffffffffffff1673ffffffffffffffffffffffffffffffffffffffff1614156108605760048381548110151561074257fe5b906000526020600020906004020191508160030160009054906101000a900460ff1615151561077057600080fd5b61077983610d7c565b15151561078557600080fd5b61078e83610e69565b15151561079a57600080fd5b60016005600085815260200190815260200160002060003373ffffffffffffffffffffffffffffffffffffffff1673ffffffffffffffffffffffffffffffffffffffff16815260200190815260200160002060006101000a81548160ff0219169083151502179055503373ffffffffffffffffffffffffffffffffffffffff16837f1205fbf8acc69299dd15e8db91a27442f39bde8c77c4b61a1f713c51e707a6fc60405160405180910390a361085083610d7c565b1561085f5761085e83610ed0565b5b5b80806001019150506106b9565b600080fd5b600061087c6111ce565b60008060009054906101000a900473ffffffffffffffffffffffffffffffffffffffff1673ffffffffffffffffffffffffffffffffffffffff163373ffffffffffffffffffffffffffffffffffffffff161415156108d957600080fd5b6000861115156108e857600080fd5b853073ffffffffffffffffffffffffffffffffffffffff16311015151561090e57600080fd5b600073ffffffffffffffffffffffffffffffffffffffff168573ffffffffffffffffffffffffffffffffffffffff161415151561094a57600080fd5b6080604051908101604052808781526020018673ffffffffffffffffffffffffffffffffffffffff168152602001858152602001600015158152509150600482908060018154018082558091505090600182039060005260206000209060040201600090919290919091506000820151816000015560208201518160010160006101000a81548173ffffffffffffffffffffffffffffffffffffffff021916908373ffffffffffffffffffffffffffffffffffffffff1602179055506040820151816002019080519060200190610a2292919061120f565b5060608201518160030160006101000a81548160ff02191690831515021790555050509050807fbe5d398e1f60a26f14ee5d56c44adcb6e833f644dfbe3dd0927d59fadbf8b23360405160405180910390a280925050509392505050565b60008060009054906101000a900473ffffffffffffffffffffffffffffffffffffffff1673ffffffffffffffffffffffffffffffffffffffff163373ffffffffffffffffffffffffffffffffffffffff16141515610add57600080fd5b600073ffffffffffffffffffffffffffffffffffffffff168273ffffffffffffffffffffffffffffffffffffffff1614151515610b1957600080fd5b600090505b600180549050811015610baa578173ffffffffffffffffffffffffffffffffffffffff16600182815481101515610b5157fe5b9060005260206000200160009054906101000a900473ffffffffffffffffffffffffffffffffffffffff1673ffffffffffffffffffffffffffffffffffffffff161415610b9d57600080fd5b8080600101915050610b1e565b60018290806001815401808255809150509060018203906000526020600020016000909192909190916101000a81548173ffffffffffffffffffffffffffffffffffffffff021916908373ffffffffffffffffffffffffffffffffffffffff160217905550505050565b60075481565b6000809054906101000a900473ffffffffffffffffffffffffffffffffffffffff1673ffffffffffffffffffffffffffffffffffffffff168173ffffffffffffffffffffffffffffffffffffffff1614151515610c7657600080fd5b600073ffffffffffffffffffffffffffffffffffffffff168173ffffffffffffffffffffffffffffffffffffffff1614151515610cb257600080fd5b806000806101000a81548173ffffffffffffffffffffffffffffffffffffffff021916908373ffffffffffffffffffffffffffffffffffffffff1602179055508073ffffffffffffffffffffffffffffffffffffffff167fa2ea9883a321a3e97b8266c2b078bfeec6d50c711ed71f874a90d500ae2eaf3660405160405180910390a250565b600281815481101515610d4757fe5b906000526020600020016000915054906101000a900473ffffffffffffffffffffffffffffffffffffffff1681565b60085481565b6000806000809150600090505b600180549050811015610e4857600560008581526020019081526020016000206000600183815481101515610dba57fe5b9060005260206000200160009054906101000a900473ffffffffffffffffffffffffffffffffffffffff1673ffffffffffffffffffffffffffffffffffffffff1673ffffffffffffffffffffffffffffffffffffffff16815260200190815260200160002060009054906101000a900460ff1615610e3b5781806001019250505b8080600101915050610d89565b600360009054906101000a900461ffff1661ffff1682101592505050919050565b60006005600083815260200190815260200160002060003373ffffffffffffffffffffffffffffffffffffffff1673ffffffffffffffffffffffffffffffffffffffff16815260200190815260200160002060009054906101000a900460ff169050919050565b600080600080600090505b600180549050811015611177573373ffffffffffffffffffffffffffffffffffffffff16600182815481101515610f0e57fe5b9060005260206000200160009054906101000a900473ffffffffffffffffffffffffffffffffffffffff1673ffffffffffffffffffffffffffffffffffffffff16141561116a57600485815481101515610f6457fe5b906000526020600020906004020193503073ffffffffffffffffffffffffffffffffffffffff1631846000015411151515610f9e57600080fd5b610fa785610d7c565b9250610fb6846000015461117c565b9150828015610fc25750815b8015610fdd57508360030160009054906101000a900460ff16155b156111695760018460030160006101000a81548160ff02191690831515021790555083600001546007600082825401925050819055508360010160009054906101000a900473ffffffffffffffffffffffffffffffffffffffff1673ffffffffffffffffffffffffffffffffffffffff1684600001548560020160405180828054600181600116156101000203166002900480156110bc5780601f10611091576101008083540402835291602001916110bc565b820191906000526020600020905b81548152906001019060200180831161109f57829003601f168201915b505091505060006040518083038185875af1925050501561110957847f15ed165a284872ea7017f03df402a0cadfbfab588320ffaf83f160c2f82781c760405160405180910390a2611168565b60008460030160006101000a81548160ff0219169083151502179055508360000154600760008282540392505081905550847f2724cfb6dd99839f245928a05f4efb76270bb8ff17f88c75d139204bd91c83d060405160405180910390a25b5b5b8080600101915050610edb565b600080fd5b6000620151806008540142111561119d574260088190555060006007819055505b600654826007540111156111b457600090506111b9565b600190505b919050565b604051610337806112b583390190565b60806040519081016040528060008152602001600073ffffffffffffffffffffffffffffffffffffffff168152602001606081526020016000151581525090565b828054600181600116156101000203166002900490600052602060002090601f016020900481019282601f1061125057805160ff191683800117855561127e565b8280016001018555821561127e579182015b8281111561127d578251825591602001919060010190611262565b5b50905061128b919061128f565b5090565b6112b191905b808211156112ad576000816000905550600101611295565b5090565b9056006080604052336000806101000a81548173ffffffffffffffffffffffffffffffffffffffff021916908373ffffffffffffffffffffffffffffffffffffffff1602179055506102e4806100536000396000f30060806040526004361061004c576000357c0100000000000000000000000000000000000000000000000000000000900463ffffffff1680638da5cb5b14610061578063f2fde38b146100b8575b600034111561005f5761005e346100fb565b5b005b34801561006d57600080fd5b50610076610175565b604051808273ffffffffffffffffffffffffffffffffffffffff1673ffffffffffffffffffffffffffffffffffffffff16815260200191505060405180910390f35b3480156100c457600080fd5b506100f9600480360381019080803573ffffffffffffffffffffffffffffffffffffffff16906020019092919050505061019a565b005b60008111151561010a57600080fd5b6000809054906101000a900473ffffffffffffffffffffffffffffffffffffffff1673ffffffffffffffffffffffffffffffffffffffff166108fc829081150290604051600060405180830381858888f19350505050158015610171573d6000803e3d6000fd5b5050565b6000809054906101000a900473ffffffffffffffffffffffffffffffffffffffff1681565b6000809054906101000a900473ffffffffffffffffffffffffffffffffffffffff1673ffffffffffffffffffffffffffffffffffffffff168173ffffffffffffffffffffffffffffffffffffffff16141515156101f657600080fd5b600073ffffffffffffffffffffffffffffffffffffffff168173ffffffffffffffffffffffffffffffffffffffff161415151561023257600080fd5b806000806101000a81548173ffffffffffffffffffffffffffffffffffffffff021916908373ffffffffffffffffffffffffffffffffffffffff1602179055508073ffffffffffffffffffffffffffffffffffffffff167fa2ea9883a321a3e97b8266c2b078bfeec6d50c711ed71f874a90d500ae2eaf3660405160405180910390a2505600a165627a7a723058200fb9765d2289ac639a3ebcaaacbff3e18c73d0d878c0c62dd0f70c0ee3f3f8d20029a165627a7a72305820dfb17cfd175103d8129e63e137de3893617f19b847c40bf8ffb1e205ea5a8c0b0029",
  "source": "pragma solidity ^0.4.23;\n\nimport { MultiSigWallet } from \"./MultiSigWallet.sol\";\n\ncontract MultiSigWalletWithDailyLimit is MultiSigWallet {\n\n    uint public dailyLimit;\n    uint public spentToday;\n    uint public yesterday;\n\n    constructor(address[] _signers, uint16 _requiredSigns, uint _dailyLimit) public MultiSigWallet(_signers, _requiredSigns) {\n        require(_dailyLimit > 0);\n        dailyLimit = _dailyLimit;\n    }\n\n    function executeTransaction(uint _transactionId) internal onlySigner {\n        Transaction storage transaction = transactions[_transactionId];\n        require(transaction.amount <= address(this).balance);\n\n        bool isConfirmed = isTransactionConfirmed(_transactionId);\n        bool isUnderLimit = isUnderDailyLimit(transaction.amount);\n\n        if(isConfirmed && isUnderLimit && !transaction.executed){\n\n            transaction.executed = true;\n            spentToday += transaction.amount;\n\n            if (transaction.destination.call.value(transaction.amount)(transaction.data)){\n                emit TransactionExecuted(_transactionId);\n            }else {\n                transaction.executed = false;\n                spentToday -= transaction.amount;\n                emit TransactionExecutionFailed(_transactionId);\n            }\n        }\n    }\n\n    function isUnderDailyLimit(uint amount) internal returns (bool) {\n\n        if(block.timestamp > yesterday + 24 hours){\n            yesterday = block.timestamp;\n            spentToday = 0;\n        }\n\n        if(spentToday + amount > dailyLimit){\n            return false;\n        }\n\n        return true;\n    }\n}",
  "sourcePath": "/Users/markomarinovic/Projects/Personal/ethereum-multisig/src/contracts/MultiSigWalletWithDailyLimit.sol",
  "compiler": {
    "name": "solc",
    "version": "0.4.24+commit.e67f0147.Emscripten.clang"
  },
  "schemaVersion": "2.0.1",
  "updatedAt": "2018-10-21T18:02:09.112Z"
}