{
  "contractName": "MultiSigWalletWithDailyLimit",
  "abi": [
    {
      "constant": false,
      "inputs": [
        {
          "name": "_signer",
          "type": "address"
        }
      ],
      "name": "removeSigner",
      "outputs": [],
      "payable": false,
      "stateMutability": "nonpayable",
      "type": "function"
    },
    {
      "constant": false,
      "inputs": [
        {
          "name": "_newOwner",
          "type": "address"
        }
      ],
      "name": "transferOwner",
      "outputs": [],
      "payable": false,
      "stateMutability": "nonpayable",
      "type": "function"
    },
    {
      "constant": true,
      "inputs": [],
      "name": "dailyLimit",
      "outputs": [
        {
          "name": "",
          "type": "uint256"
        }
      ],
      "payable": false,
      "stateMutability": "view",
      "type": "function"
    },
    {
      "constant": false,
      "inputs": [
        {
          "name": "_signer",
          "type": "address"
        }
      ],
      "name": "addSigned",
      "outputs": [],
      "payable": false,
      "stateMutability": "nonpayable",
      "type": "function"
    },
    {
      "constant": false,
      "inputs": [
        {
          "name": "_transactionId",
          "type": "uint256"
        }
      ],
      "name": "confirmTransaction",
      "outputs": [],
      "payable": false,
      "stateMutability": "nonpayable",
      "type": "function"
    },
    {
      "constant": false,
      "inputs": [
        {
          "name": "_amount",
          "type": "uint256"
        },
        {
          "name": "_destination",
          "type": "address"
        },
        {
          "name": "_data",
          "type": "string"
        }
      ],
      "name": "addTransaction",
      "outputs": [
        {
          "name": "",
          "type": "uint256"
        }
      ],
      "payable": false,
      "stateMutability": "nonpayable",
      "type": "function"
    },
    {
      "constant": true,
      "inputs": [],
      "name": "spentToday",
      "outputs": [
        {
          "name": "",
          "type": "uint256"
        }
      ],
      "payable": false,
      "stateMutability": "view",
      "type": "function"
    },
    {
      "constant": true,
      "inputs": [],
      "name": "yesterday",
      "outputs": [
        {
          "name": "",
          "type": "uint256"
        }
      ],
      "payable": false,
      "stateMutability": "view",
      "type": "function"
    },
    {
      "inputs": [
        {
          "name": "_signers",
          "type": "address[]"
        },
        {
          "name": "_requiredSigns",
          "type": "uint16"
        },
        {
          "name": "_dailyLimit",
          "type": "uint256"
        }
      ],
      "payable": false,
      "stateMutability": "nonpayable",
      "type": "constructor"
    },
    {
      "anonymous": false,
      "inputs": [
        {
          "indexed": true,
          "name": "id",
          "type": "uint256"
        }
      ],
      "name": "TransactionAdded",
      "type": "event"
    },
    {
      "anonymous": false,
      "inputs": [
        {
          "indexed": true,
          "name": "id",
          "type": "uint256"
        },
        {
          "indexed": true,
          "name": "signer",
          "type": "address"
        }
      ],
      "name": "TransactionConfirmation",
      "type": "event"
    },
    {
      "anonymous": false,
      "inputs": [
        {
          "indexed": true,
          "name": "id",
          "type": "uint256"
        }
      ],
      "name": "TransactionExecuted",
      "type": "event"
    },
    {
      "anonymous": false,
      "inputs": [
        {
          "indexed": true,
          "name": "id",
          "type": "uint256"
        }
      ],
      "name": "TransactionExecutionFailed",
      "type": "event"
    }
  ],
  "bytecode": "0x608060405234801561001057600080fd5b506040516200115a3803806200115a83398101806040528101908080518201929190602001805190602001909291908051906020019092919050505082826000825111151561005e57600080fd5b60008161ffff1611151561007157600080fd5b81600190805190602001906100879291906100c5565b5080600260006101000a81548161ffff021916908361ffff16021790555050506000811115156100b657600080fd5b80600581905550505050610192565b82805482825590600052602060002090810192821561013e579160200282015b8281111561013d5782518260006101000a81548173ffffffffffffffffffffffffffffffffffffffff021916908373ffffffffffffffffffffffffffffffffffffffff160217905550916020019190600101906100e5565b5b50905061014b919061014f565b5090565b61018f91905b8082111561018b57600081816101000a81549073ffffffffffffffffffffffffffffffffffffffff021916905550600101610155565b5090565b90565b610fb880620001a26000396000f30060806040526004361061008e576000357c0100000000000000000000000000000000000000000000000000000000900463ffffffff1680630e316ab7146100935780634fb2e45d146100d657806367eeba0c14610119578063b3035f2214610144578063c01a8c8414610187578063c516a1c6146101b4578063f059cf2b1461025b578063fec0921414610286575b600080fd5b34801561009f57600080fd5b506100d4600480360381019080803573ffffffffffffffffffffffffffffffffffffffff1690602001909291905050506102b1565b005b3480156100e257600080fd5b50610117600480360381019080803573ffffffffffffffffffffffffffffffffffffffff169060200190929190505050610452565b005b34801561012557600080fd5b5061012e61052c565b6040518082815260200191505060405180910390f35b34801561015057600080fd5b50610185600480360381019080803573ffffffffffffffffffffffffffffffffffffffff169060200190929190505050610532565b005b34801561019357600080fd5b506101b26004803603810190808035906020019092919050505061066d565b005b3480156101c057600080fd5b5061024560048036038101908080359060200190929190803573ffffffffffffffffffffffffffffffffffffffff169060200190929190803590602001908201803590602001908080601f016020809104026020016040519081016040528093929190818152602001838380828437820191505050505050919291929050505061083b565b6040518082815260200191505060405180910390f35b34801561026757600080fd5b50610270610a49565b6040518082815260200191505060405180910390f35b34801561029257600080fd5b5061029b610a4f565b6040518082815260200191505060405180910390f35b60008060009054906101000a900473ffffffffffffffffffffffffffffffffffffffff1673ffffffffffffffffffffffffffffffffffffffff163373ffffffffffffffffffffffffffffffffffffffff1614151561030e57600080fd5b600073ffffffffffffffffffffffffffffffffffffffff168273ffffffffffffffffffffffffffffffffffffffff161415151561034a57600080fd5b3373ffffffffffffffffffffffffffffffffffffffff168273ffffffffffffffffffffffffffffffffffffffff161415151561038557600080fd5b600090505b60018054905081101561044e578173ffffffffffffffffffffffffffffffffffffffff166001828154811015156103bd57fe5b9060005260206000200160009054906101000a900473ffffffffffffffffffffffffffffffffffffffff1673ffffffffffffffffffffffffffffffffffffffff1614156104415760018181548110151561041357fe5b9060005260206000200160006101000a81549073ffffffffffffffffffffffffffffffffffffffff02191690555b808060010191505061038a565b5050565b6000809054906101000a900473ffffffffffffffffffffffffffffffffffffffff1673ffffffffffffffffffffffffffffffffffffffff163373ffffffffffffffffffffffffffffffffffffffff161415156104ad57600080fd5b600073ffffffffffffffffffffffffffffffffffffffff168173ffffffffffffffffffffffffffffffffffffffff16141515156104e957600080fd5b806000806101000a81548173ffffffffffffffffffffffffffffffffffffffff021916908373ffffffffffffffffffffffffffffffffffffffff16021790555050565b60055481565b6000809054906101000a900473ffffffffffffffffffffffffffffffffffffffff1673ffffffffffffffffffffffffffffffffffffffff163373ffffffffffffffffffffffffffffffffffffffff1614151561058d57600080fd5b600073ffffffffffffffffffffffffffffffffffffffff168173ffffffffffffffffffffffffffffffffffffffff16141515156105c957600080fd5b3373ffffffffffffffffffffffffffffffffffffffff168173ffffffffffffffffffffffffffffffffffffffff161415151561060457600080fd5b60018190806001815401808255809150509060018203906000526020600020016000909192909190916101000a81548173ffffffffffffffffffffffffffffffffffffffff021916908373ffffffffffffffffffffffffffffffffffffffff1602179055505050565b600080600090505b600180549050811015610829573373ffffffffffffffffffffffffffffffffffffffff166001828154811015156106a857fe5b9060005260206000200160009054906101000a900473ffffffffffffffffffffffffffffffffffffffff1673ffffffffffffffffffffffffffffffffffffffff16141561081c576003838154811015156106fe57fe5b906000526020600020906004020191508160030160009054906101000a900460ff1615151561072c57600080fd5b61073583610a55565b15151561074157600080fd5b61074a83610b42565b15151561075657600080fd5b60016004600085815260200190815260200160002060003373ffffffffffffffffffffffffffffffffffffffff1673ffffffffffffffffffffffffffffffffffffffff16815260200190815260200160002060006101000a81548160ff0219169083151502179055503373ffffffffffffffffffffffffffffffffffffffff16837f1205fbf8acc69299dd15e8db91a27442f39bde8c77c4b61a1f713c51e707a6fc60405160405180910390a361080c83610a55565b1561081b5761081a83610ba9565b5b5b8080600101915050610675565b6000151561083657600080fd5b505050565b6000610845610ea6565b60008060009054906101000a900473ffffffffffffffffffffffffffffffffffffffff1673ffffffffffffffffffffffffffffffffffffffff163373ffffffffffffffffffffffffffffffffffffffff161415156108a257600080fd5b6000861115156108b157600080fd5b853073ffffffffffffffffffffffffffffffffffffffff1631101515156108d757600080fd5b600073ffffffffffffffffffffffffffffffffffffffff168573ffffffffffffffffffffffffffffffffffffffff161415151561091357600080fd5b6080604051908101604052808781526020018673ffffffffffffffffffffffffffffffffffffffff168152602001858152602001600015158152509150600382908060018154018082558091505090600182039060005260206000209060040201600090919290919091506000820151816000015560208201518160010160006101000a81548173ffffffffffffffffffffffffffffffffffffffff021916908373ffffffffffffffffffffffffffffffffffffffff16021790555060408201518160020190805190602001906109eb929190610ee7565b5060608201518160030160006101000a81548160ff02191690831515021790555050509050807fbe5d398e1f60a26f14ee5d56c44adcb6e833f644dfbe3dd0927d59fadbf8b23360405160405180910390a280925050509392505050565b60065481565b60075481565b6000806000809150600090505b600180549050811015610b2157600460008581526020019081526020016000206000600183815481101515610a9357fe5b9060005260206000200160009054906101000a900473ffffffffffffffffffffffffffffffffffffffff1673ffffffffffffffffffffffffffffffffffffffff1673ffffffffffffffffffffffffffffffffffffffff16815260200190815260200160002060009054906101000a900460ff1615610b145781806001019250505b8080600101915050610a62565b600260009054906101000a900461ffff1661ffff1682101592505050919050565b60006004600083815260200190815260200160002060003373ffffffffffffffffffffffffffffffffffffffff1673ffffffffffffffffffffffffffffffffffffffff16815260200190815260200160002060009054906101000a900460ff169050919050565b600080600080600090505b600180549050811015610e50573373ffffffffffffffffffffffffffffffffffffffff16600182815481101515610be757fe5b9060005260206000200160009054906101000a900473ffffffffffffffffffffffffffffffffffffffff1673ffffffffffffffffffffffffffffffffffffffff161415610e4357600385815481101515610c3d57fe5b906000526020600020906004020193503073ffffffffffffffffffffffffffffffffffffffff1631846000015411151515610c7757600080fd5b610c8085610a55565b9250610c8f8460000154610e64565b9150828015610c9b5750815b8015610cb657508360030160009054906101000a900460ff16155b15610e425760018460030160006101000a81548160ff02191690831515021790555083600001546006600082825401925050819055508360010160009054906101000a900473ffffffffffffffffffffffffffffffffffffffff1673ffffffffffffffffffffffffffffffffffffffff168460000154856002016040518082805460018160011615610100020316600290048015610d955780601f10610d6a57610100808354040283529160200191610d95565b820191906000526020600020905b815481529060010190602001808311610d7857829003601f168201915b505091505060006040518083038185875af19250505015610de257847f15ed165a284872ea7017f03df402a0cadfbfab588320ffaf83f160c2f82781c760405160405180910390a2610e41565b60008460030160006101000a81548160ff0219169083151502179055508360000154600660008282540392505081905550847f2724cfb6dd99839f245928a05f4efb76270bb8ff17f88c75d139204bd91c83d060405160405180910390a25b5b5b8080600101915050610bb4565b60001515610e5d57600080fd5b5050505050565b60006201518060075401421115610e85574260078190555060006006819055505b60055482600654011115610e9c5760009050610ea1565b600190505b919050565b60806040519081016040528060008152602001600073ffffffffffffffffffffffffffffffffffffffff168152602001606081526020016000151581525090565b828054600181600116156101000203166002900490600052602060002090601f016020900481019282601f10610f2857805160ff1916838001178555610f56565b82800160010185558215610f56579182015b82811115610f55578251825591602001919060010190610f3a565b5b509050610f639190610f67565b5090565b610f8991905b80821115610f85576000816000905550600101610f6d565b5090565b905600a165627a7a7230582051b3357716827feadcce98b2d45765161af2510e7c02b511473695090fd10e8d0029",
  "source": "pragma solidity ^0.4.23;\n\nimport { MultiSigWallet } from \"./MultiSigWallet.sol\";\n\ncontract MultiSigWalletWithDailyLimit is MultiSigWallet {\n\n    uint public dailyLimit;\n    uint public spentToday;\n    uint public yesterday;\n\n    constructor(address[] _signers, uint16 _requiredSigns, uint _dailyLimit) public MultiSigWallet(_signers, _requiredSigns) {\n        require(_dailyLimit > 0);\n        dailyLimit = _dailyLimit;\n    }\n\n    function executeTransaction(uint _transactionId) internal onlySigner {\n        Transaction storage transaction = transactions[_transactionId];\n        require(transaction.amount <= address(this).balance);\n\n        bool isConfirmed = isTransactionConfirmed(_transactionId);\n        bool isUnderLimit = isUnderDailyLimit(transaction.amount);\n\n        if(isConfirmed && isUnderLimit && !transaction.executed){\n\n            transaction.executed = true;\n            spentToday += transaction.amount;\n\n            if (transaction.destination.call.value(transaction.amount)(transaction.data)){\n                emit TransactionExecuted(_transactionId);\n            }else {\n                transaction.executed = false;\n                spentToday -= transaction.amount;\n                emit TransactionExecutionFailed(_transactionId);\n            }\n        }\n    }\n\n    function isUnderDailyLimit(uint amount) internal returns (bool) {\n\n        if(block.timestamp > yesterday + 24 hours){\n            yesterday = block.timestamp;\n            spentToday = 0;\n        }\n\n        if(spentToday + amount > dailyLimit){\n            return false;\n        }\n\n        return true;\n    }\n}",
  "sourcePath": "/Users/markomarinovic/Projects/ethereum-multisig/src/contracts/MultiSigWalletWithDailyLimit.sol",
  "compiler": {
    "name": "solc",
    "version": "0.4.24+commit.e67f0147.Emscripten.clang"
  },
  "schemaVersion": "2.0.1",
  "updatedAt": "2018-08-18T17:33:31.665Z"
}